{
  "contractName": "SimplePayment",
  "abi": [
    {
      "inputs": [
        {
          "internalType": "address",
          "name": "gem_",
          "type": "address"
        }
      ],
      "payable": false,
      "stateMutability": "nonpayable",
      "type": "constructor"
    },
    {
      "constant": true,
      "inputs": [],
      "name": "gem",
      "outputs": [
        {
          "internalType": "contract GemLike",
          "name": "",
          "type": "address"
        }
      ],
      "payable": false,
      "stateMutability": "view",
      "type": "function"
    },
    {
      "constant": true,
      "inputs": [
        {
          "internalType": "address",
          "name": "",
          "type": "address"
        }
      ],
      "name": "wards",
      "outputs": [
        {
          "internalType": "uint256",
          "name": "",
          "type": "uint256"
        }
      ],
      "payable": false,
      "stateMutability": "view",
      "type": "function"
    },
    {
      "constant": false,
      "inputs": [
        {
          "internalType": "address",
          "name": "guy",
          "type": "address"
        }
      ],
      "name": "rely",
      "outputs": [],
      "payable": false,
      "stateMutability": "nonpayable",
      "type": "function"
    },
    {
      "constant": false,
      "inputs": [
        {
          "internalType": "address",
          "name": "guy",
          "type": "address"
        }
      ],
      "name": "deny",
      "outputs": [],
      "payable": false,
      "stateMutability": "nonpayable",
      "type": "function"
    },
    {
      "constant": false,
      "inputs": [
        {
          "internalType": "uint256",
          "name": "amount",
          "type": "uint256"
        }
      ],
      "name": "withdraw",
      "outputs": [],
      "payable": false,
      "stateMutability": "nonpayable",
      "type": "function"
    },
    {
      "constant": false,
      "inputs": [
        {
          "internalType": "uint256",
          "name": "amount",
          "type": "uint256"
        }
      ],
      "name": "deposit",
      "outputs": [],
      "payable": true,
      "stateMutability": "payable",
      "type": "function"
    },
    {
      "constant": false,
      "inputs": [],
      "name": "close",
      "outputs": [],
      "payable": false,
      "stateMutability": "nonpayable",
      "type": "function"
    }
  ],
  "bytecode": "0x608060405234801561001057600080fd5b50604051610f5b380380610f5b8339818101604052602081101561003357600080fd5b810190808051906020019092919050505060018060003373ffffffffffffffffffffffffffffffffffffffff1673ffffffffffffffffffffffffffffffffffffffff1681526020019081526020016000208190555080600260006101000a81548173ffffffffffffffffffffffffffffffffffffffff021916908373ffffffffffffffffffffffffffffffffffffffff16021790555050610e82806100d96000396000f3fe6080604052600436106100705760003560e01c80637bd2bea71161004e5780637bd2bea7146101185780639c52a7f11461016f578063b6b55f25146101c0578063bf353dbb146101ee57610070565b80632e1a7d4d1461007557806343d726d6146100b057806365fae35e146100c7575b600080fd5b34801561008157600080fd5b506100ae6004803603602081101561009857600080fd5b8101908080359060200190929190505050610253565b005b3480156100bc57600080fd5b506100c561054b565b005b3480156100d357600080fd5b50610116600480360360208110156100ea57600080fd5b81019080803573ffffffffffffffffffffffffffffffffffffffff169060200190929190505050610648565b005b34801561012457600080fd5b5061012d610743565b604051808273ffffffffffffffffffffffffffffffffffffffff1673ffffffffffffffffffffffffffffffffffffffff16815260200191505060405180910390f35b34801561017b57600080fd5b506101be6004803603602081101561019257600080fd5b81019080803573ffffffffffffffffffffffffffffffffffffffff169060200190929190505050610769565b005b6101ec600480360360208110156101d657600080fd5b8101908080359060200190929190505050610865565b005b3480156101fa57600080fd5b5061023d6004803603602081101561021157600080fd5b81019080803573ffffffffffffffffffffffffffffffffffffffff169060200190929190505050610b4b565b6040518082815260200191505060405180910390f35b6000803373ffffffffffffffffffffffffffffffffffffffff1673ffffffffffffffffffffffffffffffffffffffff168152602001908152602001600020548111156102ea576040517f08c379a0000000000000000000000000000000000000000000000000000000008152600401808060200182810382526023815260200180610e066023913960400191505060405180910390fd5b60006102fe82670de0b6b3a7640000610b63565b9050600260009054906101000a900473ffffffffffffffffffffffffffffffffffffffff1673ffffffffffffffffffffffffffffffffffffffff166323b872dd3330846040518463ffffffff1660e01b8152600401808473ffffffffffffffffffffffffffffffffffffffff1673ffffffffffffffffffffffffffffffffffffffff1681526020018373ffffffffffffffffffffffffffffffffffffffff1673ffffffffffffffffffffffffffffffffffffffff1681526020018281526020019350505050602060405180830381600087803b1580156103dd57600080fd5b505af11580156103f1573d6000803e3d6000fd5b505050506040513d602081101561040757600080fd5b810190808051906020019092919050505061046d576040517f08c379a0000000000000000000000000000000000000000000000000000000008152600401808060200182810382526025815260200180610e296025913960400191505060405180910390fd5b3373ffffffffffffffffffffffffffffffffffffffff166108fc839081150290604051600060405180830381858888f193505050501580156104b3573d6000803e3d6000fd5b50610505826000803373ffffffffffffffffffffffffffffffffffffffff1673ffffffffffffffffffffffffffffffffffffffff16815260200190815260200160002054610bad90919063ffffffff16565b6000803373ffffffffffffffffffffffffffffffffffffffff1673ffffffffffffffffffffffffffffffffffffffff168152602001908152602001600020819055505050565b60018060003373ffffffffffffffffffffffffffffffffffffffff1673ffffffffffffffffffffffffffffffffffffffff16815260200190815260200160002054146105ff576040517f08c379a000000000000000000000000000000000000000000000000000000000815260040180806020018281038252601c8152602001807f53696d706c655061796d656e742f6e6f742d617574686f72697a65640000000081525060200191505060405180910390fd5b3373ffffffffffffffffffffffffffffffffffffffff166108fc479081150290604051600060405180830381858888f19350505050158015610645573d6000803e3d6000fd5b50565b60018060003373ffffffffffffffffffffffffffffffffffffffff1673ffffffffffffffffffffffffffffffffffffffff16815260200190815260200160002054146106fc576040517f08c379a000000000000000000000000000000000000000000000000000000000815260040180806020018281038252601c8152602001807f53696d706c655061796d656e742f6e6f742d617574686f72697a65640000000081525060200191505060405180910390fd5b60018060008373ffffffffffffffffffffffffffffffffffffffff1673ffffffffffffffffffffffffffffffffffffffff1681526020019081526020016000208190555050565b600260009054906101000a900473ffffffffffffffffffffffffffffffffffffffff1681565b60018060003373ffffffffffffffffffffffffffffffffffffffff1673ffffffffffffffffffffffffffffffffffffffff168152602001908152602001600020541461081d576040517f08c379a000000000000000000000000000000000000000000000000000000000815260040180806020018281038252601c8152602001807f53696d706c655061796d656e742f6e6f742d617574686f72697a65640000000081525060200191505060405180910390fd5b6000600160008373ffffffffffffffffffffffffffffffffffffffff1673ffffffffffffffffffffffffffffffffffffffff1681526020019081526020016000208190555050565b803410156108db576040517f08c379a00000000000000000000000000000000000000000000000000000000081526004018080602001828103825260208152602001807f53696d706c655061796d656e742f636f756c642d6e6f742d776974686472617781525060200191505060405180910390fd5b60006108e73483610bad565b90503373ffffffffffffffffffffffffffffffffffffffff166108fc829081150290604051600060405180830381858888f1935050505015801561092f573d6000803e3d6000fd5b50600061094483670de0b6b3a7640000610b63565b9050600260009054906101000a900473ffffffffffffffffffffffffffffffffffffffff1673ffffffffffffffffffffffffffffffffffffffff166323b872dd3033846040518463ffffffff1660e01b8152600401808473ffffffffffffffffffffffffffffffffffffffff1673ffffffffffffffffffffffffffffffffffffffff1681526020018373ffffffffffffffffffffffffffffffffffffffff1673ffffffffffffffffffffffffffffffffffffffff1681526020018281526020019350505050602060405180830381600087803b158015610a2357600080fd5b505af1158015610a37573d6000803e3d6000fd5b505050506040513d6020811015610a4d57600080fd5b8101908080519060200190929190505050610ab3576040517f08c379a0000000000000000000000000000000000000000000000000000000008152600401808060200182810382526025815260200180610e296025913960400191505060405180910390fd5b610b04836000803373ffffffffffffffffffffffffffffffffffffffff1673ffffffffffffffffffffffffffffffffffffffff16815260200190815260200160002054610bf790919063ffffffff16565b6000803373ffffffffffffffffffffffffffffffffffffffff1673ffffffffffffffffffffffffffffffffffffffff16815260200190815260200160002081905550505050565b60016020528060005260406000206000915090505481565b6000610ba583836040518060400160405280601a81526020017f536166654d6174683a206469766973696f6e206279207a65726f000000000000815250610c7f565b905092915050565b6000610bef83836040518060400160405280601e81526020017f536166654d6174683a207375627472616374696f6e206f766572666c6f770000815250610d45565b905092915050565b600080828401905083811015610c75576040517f08c379a000000000000000000000000000000000000000000000000000000000815260040180806020018281038252601b8152602001807f536166654d6174683a206164646974696f6e206f766572666c6f77000000000081525060200191505060405180910390fd5b8091505092915050565b60008083118290610d2b576040517f08c379a00000000000000000000000000000000000000000000000000000000081526004018080602001828103825283818151815260200191508051906020019080838360005b83811015610cf0578082015181840152602081019050610cd5565b50505050905090810190601f168015610d1d5780820380516001836020036101000a031916815260200191505b509250505060405180910390fd5b506000838581610d3757fe5b049050809150509392505050565b6000838311158290610df2576040517f08c379a00000000000000000000000000000000000000000000000000000000081526004018080602001828103825283818151815260200191508051906020019080838360005b83811015610db7578082015181840152602081019050610d9c565b50505050905090810190601f168015610de45780820380516001836020036101000a031916815260200191505b509250505060405180910390fd5b506000838503905080915050939250505056fe53696d706c655061796d656e742f696e2d73756666696369656e742d62616c616e636553696d706c655061796d656e742f636f756c642d6e6f742d7472616e736665722d67656d73a265627a7a72315820fec109355b0585c4c93a609e00f085d07ef139bf4425a250e06c20125681e46a64736f6c63430005100032",
  "source": "pragma solidity >=0.5.12;\n\nimport \"openzeppelin-solidity/contracts/math/SafeMath.sol\";\n\ninterface GemLike {\n    function transferFrom(address src, address dst, uint wad) external returns (bool);\n}\n\ncontract SimplePayment {\n    using SafeMath for uint256;\n    uint256 constant ONE = 10**18;\n    mapping (address => uint256) private _balances;\n    mapping (address => uint) public wards;\n    function rely(address guy) external auth { wards[guy] = 1; }\n    function deny(address guy) external auth { wards[guy] = 0; }\n    modifier auth {\n        require(wards[msg.sender] == 1, \"SimplePayment/not-authorized\");\n        _;\n    }\n    GemLike public gem;\n\n    constructor(address gem_) public {\n        wards[msg.sender] = 1;\n        gem = GemLike(gem_);\n    }\n\n    // return gems and get back ones\n    function withdraw(uint256 amount) public {\n        require(amount <= _balances[msg.sender], \"SimplePayment/in-sufficient-balance\");\n        uint256 gems = SafeMath.div(amount, ONE);\n        require(gem.transferFrom(msg.sender, address(this), gems), \"SimplePayment/could-not-transfer-gems\");\n        msg.sender.transfer(amount);\n        _balances[msg.sender] = _balances[msg.sender].sub(amount);\n    }\n\n    // deposit ones and get gems\n    function deposit(uint256 amount) payable public {\n        require(msg.value >= amount, \"SimplePayment/could-not-withdraw\");\n        uint256 remaining = SafeMath.sub(msg.value, amount);\n        msg.sender.transfer(remaining);\n        uint256 gems = SafeMath.div(amount, ONE);\n        require(gem.transferFrom(address(this), msg.sender, gems), \"SimplePayment/could-not-transfer-gems\");\n        _balances[msg.sender] = _balances[msg.sender].add(amount);\n    }\n\n    function close() public auth {\n        msg.sender.transfer(address(this).balance);\n    }\n}",
  "sourcePath": "/Users/gupadhyaya/go/src/github.com/harmony-one/counter/contracts/SimplePayment.sol",
  "compiler": {
    "name": "solc",
    "version": "0.5.16+commit.9c3226ce.Emscripten.clang"
  },
  "schemaVersion": "3.2.1",
  "updatedAt": "2020-08-07T23:06:55.400Z",
  "devdoc": {
    "methods": {}
  },
  "userdoc": {
    "methods": {}
  }
}